:0200200080FE60
:0D04240043B10853B2F753E87F43E10122D2
:1002FC00E4FDFCFEFBFA53E87FA80704088002C368
:10030C0033D8FC42F6E5E854F04FF5E843E840E515
:10031C00E830E7FBE5C3C4540F7D00FCE5C3C454CF
:0E032C00F0FFE5C2540F4F2DFBE43CFEAF0383
:01033A0022A0
:10039800EF4E601E438E08758A80758CC1438901B3
:1003A800438810E58830E5FB5388CFEF1F70E11EC6
:0303B80080DE22C2
:1003BB00EF4E601E438E08758AF0758CFF438901E2
:1003CB00438810E58830E5FB5388CFEF1F70E11EA3
:0303DB0080DE229F
:1003DE00EF4E601E438E08758AC0758CF9438901F5
:1003EE00438810E58830E5FB5388CFEF1F70E11E80
:0303FE0080DE227C
:0D04310043DE0443D810538EBF43DF042286
:1000030053D87FAD07AC0675D9E775D1038CD48D72
:04001300DC43D88072
:0100170022C6
:10036D008E168F17C3E51794E8E5169403501BAF4F
:10037D0017AE161200037F647E00120398740225D7
:0A038D0017F517E43516F51680DAAF
:010397002243
:04033B008E088F0990
:10033F00750A03750BE7D3E50B9509E50A95084098
:10034F001CAF0BAE0A1200037F647E001203987479
:0D035F00FE250BF50B74FF350AF50A80D959
:01036C00226E
:05044B00031300000096
:1001E6008F0F8E0E8D0D8C0C53B1BF53B2BF53B112
:1001F6007F53B27FAB0FAA0EA90DA80C7F407E429B
:100206007D0F7C0012008FC374FF9FFF74FF9EFE5C
:10021600E49DFDE49CFC78081201218FC6AB0FAA71
:100226000EA90DA80C7F407E427D0F7C0012008F28
:10023600C374FF9FFF8FC575987043878053C4F8BA
:0B02460043C42043C408D2ACD2AF2256
:08001800C2998F993099FD2275
:060401008B108A11891224
:10040700E4FEEEC39D5015AB10AA11A9128E82759A
:0C0417008300120026FF1200180E80E681
:0104230022B6
:050445003098FDAF99A5
:01044A00228F
:10025100E587541064107056900000E584F0A3E522
:1002610085F0900000E025E0FFE433FEA3E05401B7
:100271007C002FFFEC3EA3F0A3EFF0E024F1F0901F
:100281000002E034FFF0E0FEA3E0FF5401FD900026
:1002910001F0EEC313EF13900000F075C7AA75C704
:0E02A10055F58475C7AA75C7558D855387EF2F
:0102AF00222C
:07043E008B138A14891522BB
:030023000202B026
:1002B000C0E0C0F0C083C082C0D075D000C000C014
:1002C00001C002C003C004C005C006C007309811B9
:1002D000C298E515451445136007AA14A915120123
:1002E00034D007D006D005D004D003D002D001D03E
:0C02F00000D0D0D082D083D0F0D0E0321B
:0100220022BB
:0300000002013AC0
:10013A0075C7AA75C75575FD5A75C7AA75C7557586
:10014A00FDA5787FE4F6D8FD9000007FFF7E03E4EA
:0C015A00F0A3DFFCDEFA7581170201A1A2
:10016600020020E493A3F8E493A34003F68001F28F
:1001760008DFF48029E493A3F85407240CC8C3339A
:10018600C4540F4420C8834004F456800146F6DF69
:10019600E4800B010204081020408090044BE47EAA
:1001A600019360BCA3FF543F30E509541FFEE4935E
:1001B600A360010ECF54C025E060A840B8E493A325
:1001C600FAE493A3F8E493A3C8C582C8CAC583CA50
:1001D600F0A3C8C582C8CAC583CADFE9DEE780BE08
:0104500000AB
:10002600BB010CE58229F582E5833AF583E022508F
:1000360006E92582F8E622BBFE06E92582F8E222D9
:0D004600E58229F582E5833AF583E49322F3
:1000530075F008758200EF2FFFEE33FECD33CDCC64
:1000630033CCC58233C5829BED9AEC99E5829840E7
:100073000CF582EE9BFEED9AFDEC99FC0FD5F0D6C4
:10008300E4CEFBE4CDFAE4CCF9A88222B800C1B9EE
:100093000059BA002DEC8BF084CFCECDFCE5F0CB2C
:1000A300F97818EF2FFFEE33FEED33FDEC33FCEB65
:1000B30033FB10D703994004EB99FB0FD8E5E4F920
:1000C300FA227818EF2FFFEE33FEED33FDEC33FC0D
:1000D300C933C910D7059BE99A4007EC9BFCE99A01
:1000E300F90FD8E0E4C9FAE4CCFB2275F010EF2F46
:1000F300FFEE33FEED33FDCC33CCC833C810D70746
:100103009BEC9AE899400AED9BFDEC9AFCE899F880
:0E0113000FD5F0DAE4CDFBE4CCFAE4C8F92213
:10012100E8600FECC313FCED13FDEE13FEEF13FFBC
:03013100D8F122E0
:060134008A838982E47356
:00000001FF
