:10096E00410067004100690041006D0041006E00CA
:10097E004100660041006B004100680041006A00C2
:04098E0041006C00B8
:1004DA0090005CEDF0A3EBF0A3EAF0A3E9F0EF12D1
:1004EA000456050B100522200539300550400567D2
:1004FA0050057E7005957305AC8005C39000000514
:10050A00DA90005CE0FFA3E0FBA3E0FAA3E0F9A322
:10051A00E0900065F002000E90005CE0FFA3E0FBB3
:10052A00A3E0FAA3E0F9A3E0900065F0020EFC90C4
:10053A00005CE0FFA3E0FBA3E0FAA3E0F9A3E090EC
:10054A000065F0020F1190005CE0FFA3E0FBA3E05E
:10055A00FAA3E0F9A3E0900065F0020F2690005C90
:10056A00E0FFA3E0FBA3E0FAA3E0F9A3E0900065B3
:10057A00F0020F3B90005CE0FFA3E0FBA3E0FAA3CC
:10058A00E0F9A3E0900065F0020F5090005CE0FFF4
:10059A00A3E0FBA3E0FAA3E0F9A3E0900065F00270
:1005AA000F6590005CE0FFA3E0FBA3E0FAA3E0F98B
:1005BA00A3E0900065F0020F7A90005CE0FFA3E0F0
:1005CA00FBA3E0FAA3E0F9A3E0900065F0120F8F15
:0105DA0022FE
:10000E00900061EFF0A3EBF0A3EAF0A3E9F090000B
:05001E00677401F022EF
:100EFC00900061EFF0A3EBF0A3EAF0A3E9F090000F
:050F0C00697401F022F0
:100F1100900061EFF0A3EBF0A3EAF0A3E9F09000F9
:050F21006D7401F022D7
:100F2600900061EFF0A3EBF0A3EAF0A3E9F09000E4
:050F36006E7401F022C1
:100F3B00900061EFF0A3EBF0A3EAF0A3E9F09000CF
:050F4B00667401F022B4
:100F5000900061EFF0A3EBF0A3EAF0A3E9F09000BA
:050F60006B7401F0229A
:100F6500900061EFF0A3EBF0A3EAF0A3E9F09000A5
:050F7500687401F02288
:100F7A00900061EFF0A3EBF0A3EAF0A3E9F0900090
:050F8A006A7401F02271
:100F8F00900061EFF0A3EBF0A3EAF0A3E9F090007B
:050F9F006C7401F0225A
:0B10E200120ED012110112078E80F8D0
:100ED0001210B0120E847FE87E03120EE6120FB8D5
:060EE000120D50D2AF22FA
:03110100020D14C8
:1009920046001220A100010A8A46002D30A1000162
:1009A2000A9A46000040A100010AEA46000650A148
:1009B20000010AFA46001E70A1000172A246000C54
:1009C20073A1000175A646001880A100010A2A49F8
:0B09D200002490A10004214072753544
:10078E00900067E064016040900069E064016038A9
:10079E0090006DE06401603090006EE064016028AE
:1007AE00900066E06401602090006BE064016018C8
:1007BE00900068E06401601090006AE064016008D7
:1007CE0090006CE064017063900067E06401700358
:1007DE00021110900069E064017003020FCB9000CB
:1007EE006DE064017003020FDB90006EE064017037
:1007FE0003020FEB900066E064017003020FFB90A2
:10080E00006BE06401700302100B900068E064015D
:10081E00700302101B90006AE06401700302102B3B
:0C082E0090006CE06401700312103B228B
:0111100022BC
:100FCB00E4900069F07B017A0079127D0602110D25
:100FDB00E490006DF07B017A00792D7D0602110DF6
:100FEB00E490006EF07B017A0079007D0602110D12
:100FFB00E4900066F07B017A0079067D0602110D04
:10100B00E490006BF07B017A00791E7D0602110DD6
:10101B00E4900068F07B017A00790C7D0602110DDB
:10102B00E490006AF07B017A0079187D0602110DBD
:10103B00E490006CF07B017A0079247D0902110D9C
:0D10960043B10853B2F753E87F43E1012254
:100C9600E4FDFCFEFBFA53E87FA80704088002C3C4
:100CA60033D8FC42F6E5E854F04FF5E843E840E572
:100CB600E830E7FBE5C3C4540F7D00FCE5C3C4542C
:0E0CC600F0FFE5C2540F4F2DFBE43CFEAF03E0
:010CD40022FD
:100DE600900052EEF0A3EFF0900052E07002A3E004
:100DF60060177FE87E03120EA0900053E024FFF0F8
:0A0E0600900052E034FFF080DF227C
:100EA000AD07AC06E412002B120064EF4E600800A0
:070EB000EF1F70F71E80F434
:010EB7002218
:0D10A30043DE0443D810538EBF43DF042208
:100EB80053D87FAD07AC0675D9E775D103ECF5D4E7
:070EC800AF058FDC43D88069
:010ECF002200
:100D8600900095EEF0A3EFF0900095E0FEA3E0FF53
:100D9600C394E8EE9403501A120EB87F647E0012D4
:100DA6000DE6900096E02402F0900095E03400F005
:020DB60080D6E5
:010DB8002218
:080CD50090007FEEF0A3EFF0A8
:100CDD00A37403F0A374E7F090007FE0FCA3E0FDA4
:100CED00A3E0FEA3E0FFD39DEE9C401A120EB87F49
:100CFD00647E00120DE6900082E024FEF0900081EB
:060D0D00E034FFF080D28B
:010D130022BD
:100FA400EF700C438E08758A80758CC1438901E407
:040FB400FF020E68C2
:0C10CA0090008FEBF0A3EAF0A3E9F02205
:100E4C00EF14600E14600E14600E2403700D4388B2
:0C0E5C00102243884043C80443C408220D
:100E6800EF14600E14600E14600E2403700D538886
:0C0E7800EF225388BF53C8FB53C4F7227D
:03000B00020C02E2
:100C0200C0E0C0F0C083C082C0D075D000C000C0B8
:100C120001C002C003C004C005C006C00790008F17
:100C2200E0FBA3E0FAA3E04A4B600A90008FA3A383
:100C3200E0F912047CD007D006D005D004D003D04E
:100C420002D001D000D0D0D082D083D0F0D0E03218
:0609DD004300920000003F
:100A76009000521203DB53B1BF53B2BF53B17F5341
:100A8600B27F900052E0F8A3E0F9A3E0FAA3E0FBFE
:100A96007F407E427D0F7C00120317C374FF9FFFC9
:100AA60074FF9EFEE49DFDE49CFC78081203C88F4B
:100AB600C6900052E0F8A3E0F9A3E0FAA3E0FB7FBA
:100AC600407E427D0F7C00120317C374FF9FFF74A4
:100AD600FF9EFEE49DFDE49CFCE48FC57598704383
:0E0AE600878053C4F843C42043C4080211079C
:03110400D2AC2248
:03110700C2AC2255
:08000300C2998F993099FD228A
:0B0DB900900052EBF0A3EAF0A3E9F079
:100DC400E4FEEEC39D501A900052E0FBA3E0FAA3A8
:100DD400E0F98E82758300120191FF1200030E80E8
:010DE400E12D
:010DE50022EB
:02110A00AF999B
:01110C0022C0
:100C5200E58754106410703BAF84AD85EF25E0FF4B
:100C6200E433FEED54017C002FFFEC3EFE74F12FC5
:100C7200FF74FF3EFEEF5401FDEEC313EF1375C781
:100C8200AA75C755F58475C7AA75C755AF058F856F
:030C92005387EF96
:010C9500223C
:0C10D600900092EBF0A3EAF0A3E9F022F6
:03002300020BAD20
:100BAD00C0E0C0F0C083C082C0D075D000C000C00E
:100BBD0001C002C003C004C005C006C00730981AAA
:100BCD00C298900092E0FBA3E0FAA3E04A4B600AC2
:100BDD00900092A3A3E0F912047CD007D006D005B3
:100BED00D004D003D002D001D000D0D0D082D08399
:050BFD00D0F0D0E03251
:0909E30041003300420034000021
:100D50007FB07E047D007C00120A767BFF7A0879E2
:100D6000E61210D69000557401F0A37400F0A3743D
:100D700036F0A37402F0A37409F07B017A0079487D
:060D8000120AF402110446
:1008E60012110A900033EFF0A3E475F0011202131F
:1008F600FC745225F0F58274003CF583EFF090000D
:1009060034E0FEA3E0FFC39404EE94004059900047
:1009160055E02405FDE433FCEF6D7002EE6C704784
:100926007B017A007952E02404FEE433900060F003
:10093600A3CEF0E4FD120B57900055E02456F58245
:10094600E43400F583E0B5071790005F7401F0A367
:100956007400F0A37452F07B017A0079481205DB2B
:07096600E4900034F0A3F05F
:01096D002267
:100D14007B017A007948121088EF702F7B019000D4
:100D24005E04F0A37400F0A37452F07A00794812C0
:100D340006DA900052E0FFA3E0FD7B017A007956C9
:0B0D4400900055E0900060F01204DA0F
:010D4F002281
:03110D00020DB917
:0D10B00053B3FE43B4017FF47E01020DE650
:100EE600900052EEF0A3EFF01210A3900052E0FE35
:060EF600A3E0FF020EB8AC
:0410ED00E4FEFF22FC
:0F105B00900083EEF0A3EFF0A3ECF0A3EDF022F2
:0F106A00900087EEF0A3EFF0A3ECF0A3EDF022DF
:100E840053B3DF43B42053B1FE43B20153B1FD4326
:0C0E9400B2025390DF5380FE5380FD2219
:0D10BD00EF64017004439020225390DF2265
:0410F1004380012215
:0410F5005380FE2204
:0410F900438002220C
:0410FD005380FD22FD
:0709EC0044008B0000000035
:100FB800E4FF120FA47BFF7A0E79101210CAE4FF27
:030FC800020E4CCA
:100E100090008BE0FCA3E0FDA3E0FEA3E02401FF33
:0F0E2000E43EFEE43DFDE43CFC90008B0203DB6E
:0F10790090008BE0FCA3E0FDA3E0FEA3E0FF22CC
:0609F40090006F1203DB0E
:1009FA001210799000731203DB90006FE0FCA3E001
:100A0A00FDA3E0FEA3E0FFA3E0F8A3E0F9A3E0FA68
:100A1A00A3E0FBC31203B7401B90006FE0F8A3E00A
:100A2A00F9A3E0FAA3E0FBA3E0FCA3E0FDA3E0FE48
:100A3A00A3E0802C900073E0FCA3E0FDA3E0FEA3FA
:100A4A00E024FFFFEE34FFFEED34FFFDEC34FFFC43
:100A5A0090006FE0F8A3E0F9A3E0FAA3E0FBC3EF8C
:0B0A6A009BFFEE9AFEED99FDEC98FC5E
:010A7500225E
:100E2F001209F490007BE0F8A3E0F9A3E0FAA3E045
:0D0E3F00FBD31203B750037F01227F002276
:0300000002083AB9
:10083A0075C7AA75C75575FD5A75C7AA75C755757F
:10084A00FDA5787FE4F6D8FD9000007FFF7E03E4E3
:0C085A00F0A3DFFCDEFA7581070208A1A4
:100AF400900052EBF0A3EAF0A3E9F0900052E0FB7F
:100B0400A3E0FAA3E0F9900006E4F5F01202AE9037
:100B14000008E4F5F01202AE900005E41201F19031
:100B24000059E09000031201F1900058E090000495
:100B34001201F1900055E0FBA3E0FAA3E0F9C00331
:100B4400C002C001900052E0FBA3E0FAA3E0F91256
:030B540004072271
:1005DB0090005CEBF0A3EAF0A3E9F090005C121042
:1005EB004B90005CE0FBA3E0FAA3E0F9900004124F
:1005FB000191FEEFC39E40459000031201918EF0D6
:10060B00A4FFAEF0900008120229C39FE5F09E40B4
:10061B0009900008E4F5F01202AE90005CE0FBA339
:10062B00E0FAA3E0F9900003120191FF900008E4B7
:10063B008FF012026190000574FF1201BE90005CF6
:10064B00E0FBA3E0FAA3E0F9900004120191FF9004
:10065B0000031201918FF0A4FFAEF090000612027E
:10066B0029C39FE5F09E4009900006E4F5F01202C5
:10067B00AE90005CE0FBA3E0FAA3E0F9900003125C
:10068B000191FF7E00900006120229FDACF01203CF
:10069B00E7E92DF9EA3CA801FCAD0390005FE0FB14
:1006AB00A3E0FAA3E0F912016B90005CE0FBA3E07E
:1006BB00FAA3E0F9900003120191FF900006E48F7A
:0F06CB00F012026190000574011201BE7F01223E
:1006DA0090005BEBF0A3EAF0A3E9F090005B121044
:1006EA004BEF700302078B90005BE0FBA3E0FAA3D9
:1006FA00E0F9900004120191FF9000031201918F1A
:10070A00F0A4FFAEF0900008120229C39FE5F09E04
:10071A004009900008E4F5F01202AE90005BE0FB9D
:10072A00A3E0FAA3E0F9900003120191FF7E009082
:10073A000008120229FDACF01203E7E92DF9EA3CA0
:10074A00FAC003C00290005EE0FBA3E0FAA3E0F85F
:10075A00AC02AD03D002D00312016B90005BE0FB48
:10076A00A3E0FAA3E0F9900003120191FF900008B8
:10077A00E48FF012026190000574FF1201BE7F013E
:04078A00227F0022A8
:0E10880090000512019160037F00227F01227B
:08104B00E0FBA3E0FAA3E0F9C9
:08105300900005120191FF223B
:0B0B570090005CEBF0A3EAF0A3E9F0D3
:100B6200E4900062F0A3F0EDF0900063E0FFD39018
:100B72000061E09F900060E094004029900062E0F4
:100B8200FF90005CE0FBA3E0FAA3E0F9900063E0D1
:100B9200F582758300120191FEEF6E900062F0A360
:0A0BA200E004F080C4900062E0FF60
:010BAC002226
:1000260075F020800E75F010800575F0087D007E55
:10003600007F003392D530D5031203A9EC3340106C
:10004600EF33FFEE33FEED33FDEC33FCD5F0ED225E
:0E005600E5F0247EA2D513CC92E7CDCEFF229A
:10006400EDD2E7CD33EC3392D524814006E4FFFE94
:10007400FDFC22FCE4CFCECDCC24E0501174FF80F3
:10008400EDC3CC13CCCD13CDCE13CECF13CF047090
:07009400F030D5DE0203A9E4
:100866000210E2E493A3F8E493A34003F68001F2B6
:1008760008DFF48029E493A3F85407240CC8C33393
:10088600C4540F4420C8834004F456800146F6DF62
:10089600E4800B010204081020408090096EE47E7B
:1008A600019360BCA3FF543F30E509541FFEE49357
:1008B600A360010ECF54C025E060A840B8E493A31E
:1008C600FAE493A3F8E493A3C8C582C8CAC583CA49
:1008D600F0A3C8C582C8CAC583CADFE9DEE780BE01
:0109F3000003
:10009B00E709F608DFFA8046E709F208DFFA803E47
:1000AB0088828C83E709F0A3DFFA8032E309F60834
:1000BB00DFFA8078E309F208DFFA807088828C839C
:1000CB00E309F0A3DFFA806489828A83E0A3F60850
:1000DB00DFFA805889828A83E0A3F208DFFA804C2A
:1000EB0080D280FA80C680D4806980F28033801001
:1000FB0080A680EA809A80A880DA80E280CA80336A
:10010B0089828A83ECFAE493A3C8C582C8CCC583E1
:10011B00CCF0A3C8C582C8CCC583CCDFE9DEE780B1
:10012B000D89828A83E493A3F608DFF9ECFAA9F030
:10013B00EDFB2289828A83ECFAE0A3C8C582C8CC86
:10014B00C583CCF0A3C8C582C8CCC583CCDFEADE9F
:10015B00E880DB89828A83E493A3F208DFF980CC01
:10016B0088F0EF60010E4E60C388F0ED2402B404FA
:10017B000050B9F582EB2402B4040050AF232345A1
:06018B0082239000EB73DB
:10019100BB010CE58229F582E5833AF583E0225023
:1001A10006E92582F8E622BBFE06E92582F8E2226D
:0D01B100E58229F582E5833AF583E4932287
:1001BE00BB010FF8E58229F582E5833AF583E02845
:1001CE00F0225009C58229F8E58226F622BBFE09E7
:1001DE00C58229F8E22582F222F8EA2583F583E921
:0301EE0093282231
:1001F100F8BB010DE58229F582E5833AF583E8F044
:10020100225006E92582C8F622BBFE05E92582C8EF
:02021100F222D7
:10021300A3F8E0C5F025F0F0E5821582700215839E
:06022300E0C838F0E822FB
:10022900BB0110E58229F582E5833AF583E0F5F013
:10023900A3E0225009E92582F886F008E622BBFEF0
:100249000AE92582F8E2F5F008E222E5832AF58336
:08025900E993F5F0A3E99322FB
:10026100BB010DC58229C582C5833AC583020482BB
:100271005011C58229F808E5F026F618F5F0E58257
:1002810036F622BBFE11C58229F808E225F0F5F009
:10029100F218E23582F222F8E58229F582E5832A15
:0D02A100F58374019325F0F5F0E493382205
:1002AE00F8BB0111E58229F582E5833AF583E8F082
:1002BE00E5F0A3F0225009E92582C8F608A6F0223F
:0D02CE00BBFE09E92582C8F2E5F008F22226
:1002DB0075F008758200EF2FFFEE33FECD33CDCCDA
:1002EB0033CCC58233C5829BED9AEC99E58298405D
:1002FB000CF582EE9BFEED9AFDEC99FC0FD5F0D63A
:10030B00E4CEFBE4CDFAE4CCF9A88222B800C1B963
:10031B000059BA002DEC8BF084CFCECDFCE5F0CBA1
:10032B00F97818EF2FFFEE33FEED33FDEC33FCEBDA
:10033B0033FB10D703994004EB99FB0FD8E5E4F995
:10034B00FA227818EF2FFFEE33FEED33FDEC33FC82
:10035B00C933C910D7059BE99A4007EC9BFCE99A76
:10036B00F90FD8E0E4C9FAE4CCFB2275F010EF2FBB
:10037B00FFEE33FEED33FDCC33CCC833C810D707BB
:10038B009BEC9AE899400AED9BFDEC9AFCE899F8F6
:0E039B000FD5F0DAE4CDFBE4CCFAE4C8F92289
:0E03A900C3E49FFFE49EFEE49DFDE49CFC2265
:1003B700EB9FF5F0EA9E42F0E99D42F0E89C45F09C
:0103C7002213
:1003C800E8600FECC313FCED13FDEE13FEEF13FF13
:0303D800D8F12237
:0C03DB00ECF0A3EDF0A3EEF0A3EFF02295
:1003E700BB010789828A830204AA5005E9F802043F
:1003F70098BBFE05E9F80204BC89828A830204CE11
:10040700BB011A89828A83D0F0D0E0F8D0E0F9D016
:10041700E0FAD0E0FBE8C0E0C0F00204B35016E910
:10042700F8D083D082D0E0F9D0E0FAD0E0FBC082E8
:10043700C0830204A1BBFE16E9F8D083D082D0E0C6
:0F044700F9D0E0FAD0E0FBC082C0830204C522E6
:10045600D083D082F8E4937012740193700DA3A335
:1004660093F8740193F5828883E473740293686049
:06047600EFA3A3A380DF49
:06047C008A838982E4730B
:10048200C5F0F8A3E028F0C5F0F8E5821582700205
:060492001583E038F022A2
:09049800E6FB08E6FA08E6F92289
:0904A100EBF608EAF608E9F62280
:0904AA00E0FBA3E0FAA3E0F92253
:0904B300EBF0A3EAF0A3E9F0224A
:0904BC00E2FB08E2FA08E2F92271
:0904C500EBF208EAF208E9F22268
:0C04CE00E493FB740193FA740293F9228A
:00000001FF
